{
  "contractName": "miningDapp",
  "abi": [
    {
      "anonymous": false,
      "inputs": [
        {
          "indexed": false,
          "internalType": "address",
          "name": "Staker",
          "type": "address"
        },
        {
          "indexed": false,
          "internalType": "uint256",
          "name": "amount",
          "type": "uint256"
        }
      ],
      "name": "CLAIM",
      "type": "event"
    },
    {
      "anonymous": false,
      "inputs": [
        {
          "indexed": false,
          "internalType": "address",
          "name": "Staker",
          "type": "address"
        },
        {
          "indexed": false,
          "internalType": "uint256",
          "name": "amount",
          "type": "uint256"
        }
      ],
      "name": "Distribute",
      "type": "event"
    },
    {
      "anonymous": false,
      "inputs": [
        {
          "indexed": false,
          "internalType": "uint8",
          "name": "version",
          "type": "uint8"
        }
      ],
      "name": "Initialized",
      "type": "event"
    },
    {
      "anonymous": false,
      "inputs": [
        {
          "indexed": true,
          "internalType": "address",
          "name": "previousOwner",
          "type": "address"
        },
        {
          "indexed": true,
          "internalType": "address",
          "name": "newOwner",
          "type": "address"
        }
      ],
      "name": "OwnershipTransferred",
      "type": "event"
    },
    {
      "anonymous": false,
      "inputs": [
        {
          "indexed": false,
          "internalType": "address",
          "name": "Staker",
          "type": "address"
        },
        {
          "indexed": false,
          "internalType": "uint256",
          "name": "amount",
          "type": "uint256"
        }
      ],
      "name": "STAKE",
      "type": "event"
    },
    {
      "anonymous": false,
      "inputs": [
        {
          "indexed": false,
          "internalType": "address",
          "name": "Staker",
          "type": "address"
        },
        {
          "indexed": false,
          "internalType": "uint256",
          "name": "amount",
          "type": "uint256"
        }
      ],
      "name": "WITHDRAW",
      "type": "event"
    },
    {
      "inputs": [],
      "name": "Fym",
      "outputs": [
        {
          "internalType": "contract IERC20MetadataUpgradeable",
          "name": "",
          "type": "address"
        }
      ],
      "stateMutability": "view",
      "type": "function",
      "constant": true
    },
    {
      "inputs": [],
      "name": "_owner",
      "outputs": [
        {
          "internalType": "address",
          "name": "",
          "type": "address"
        }
      ],
      "stateMutability": "view",
      "type": "function",
      "constant": true
    },
    {
      "inputs": [],
      "name": "claimDuration",
      "outputs": [
        {
          "internalType": "uint256",
          "name": "",
          "type": "uint256"
        }
      ],
      "stateMutability": "view",
      "type": "function",
      "constant": true
    },
    {
      "inputs": [],
      "name": "currentStakedNodes",
      "outputs": [
        {
          "internalType": "uint256",
          "name": "",
          "type": "uint256"
        }
      ],
      "stateMutability": "view",
      "type": "function",
      "constant": true
    },
    {
      "inputs": [],
      "name": "currentWeek",
      "outputs": [
        {
          "internalType": "uint256",
          "name": "",
          "type": "uint256"
        }
      ],
      "stateMutability": "view",
      "type": "function",
      "constant": true
    },
    {
      "inputs": [],
      "name": "launchTime",
      "outputs": [
        {
          "internalType": "uint256",
          "name": "",
          "type": "uint256"
        }
      ],
      "stateMutability": "view",
      "type": "function",
      "constant": true
    },
    {
      "inputs": [],
      "name": "launched",
      "outputs": [
        {
          "internalType": "bool",
          "name": "",
          "type": "bool"
        }
      ],
      "stateMutability": "view",
      "type": "function",
      "constant": true
    },
    {
      "inputs": [],
      "name": "maxDeposit",
      "outputs": [
        {
          "internalType": "uint256",
          "name": "",
          "type": "uint256"
        }
      ],
      "stateMutability": "view",
      "type": "function",
      "constant": true
    },
    {
      "inputs": [],
      "name": "minDeposit",
      "outputs": [
        {
          "internalType": "uint256",
          "name": "",
          "type": "uint256"
        }
      ],
      "stateMutability": "view",
      "type": "function",
      "constant": true
    },
    {
      "inputs": [],
      "name": "miningPool",
      "outputs": [
        {
          "internalType": "address",
          "name": "",
          "type": "address"
        }
      ],
      "stateMutability": "view",
      "type": "function",
      "constant": true
    },
    {
      "inputs": [],
      "name": "owner",
      "outputs": [
        {
          "internalType": "address",
          "name": "",
          "type": "address"
        }
      ],
      "stateMutability": "view",
      "type": "function",
      "constant": true
    },
    {
      "inputs": [],
      "name": "percentDivider",
      "outputs": [
        {
          "internalType": "uint256",
          "name": "",
          "type": "uint256"
        }
      ],
      "stateMutability": "view",
      "type": "function",
      "constant": true
    },
    {
      "inputs": [],
      "name": "poolPercent",
      "outputs": [
        {
          "internalType": "uint256",
          "name": "",
          "type": "uint256"
        }
      ],
      "stateMutability": "view",
      "type": "function",
      "constant": true
    },
    {
      "inputs": [],
      "name": "renounceOwnership",
      "outputs": [],
      "stateMutability": "nonpayable",
      "type": "function"
    },
    {
      "inputs": [],
      "name": "rewardDistributed",
      "outputs": [
        {
          "internalType": "uint256",
          "name": "",
          "type": "uint256"
        }
      ],
      "stateMutability": "view",
      "type": "function",
      "constant": true
    },
    {
      "inputs": [],
      "name": "timeStep",
      "outputs": [
        {
          "internalType": "uint256",
          "name": "",
          "type": "uint256"
        }
      ],
      "stateMutability": "view",
      "type": "function",
      "constant": true
    },
    {
      "inputs": [],
      "name": "totalComputingPower",
      "outputs": [
        {
          "internalType": "uint256",
          "name": "",
          "type": "uint256"
        }
      ],
      "stateMutability": "view",
      "type": "function",
      "constant": true
    },
    {
      "inputs": [],
      "name": "totalWithdrawanNodes",
      "outputs": [
        {
          "internalType": "uint256",
          "name": "",
          "type": "uint256"
        }
      ],
      "stateMutability": "view",
      "type": "function",
      "constant": true
    },
    {
      "inputs": [
        {
          "internalType": "address",
          "name": "newOwner",
          "type": "address"
        }
      ],
      "name": "transferOwnership",
      "outputs": [],
      "stateMutability": "nonpayable",
      "type": "function"
    },
    {
      "inputs": [],
      "name": "uniqueStakers",
      "outputs": [
        {
          "internalType": "uint256",
          "name": "",
          "type": "uint256"
        }
      ],
      "stateMutability": "view",
      "type": "function",
      "constant": true
    },
    {
      "inputs": [],
      "name": "v1",
      "outputs": [
        {
          "internalType": "contract miningDappV1",
          "name": "",
          "type": "address"
        }
      ],
      "stateMutability": "view",
      "type": "function",
      "constant": true
    },
    {
      "inputs": [],
      "name": "weekTime",
      "outputs": [
        {
          "internalType": "uint256",
          "name": "",
          "type": "uint256"
        }
      ],
      "stateMutability": "view",
      "type": "function",
      "constant": true
    },
    {
      "stateMutability": "payable",
      "type": "receive",
      "payable": true
    },
    {
      "inputs": [],
      "name": "initialize",
      "outputs": [],
      "stateMutability": "nonpayable",
      "type": "function"
    },
    {
      "inputs": [],
      "name": "launch",
      "outputs": [],
      "stateMutability": "nonpayable",
      "type": "function"
    },
    {
      "inputs": [],
      "name": "calculateWeek",
      "outputs": [
        {
          "internalType": "uint256",
          "name": "",
          "type": "uint256"
        }
      ],
      "stateMutability": "view",
      "type": "function",
      "constant": true
    },
    {
      "inputs": [],
      "name": "updateWeekly",
      "outputs": [],
      "stateMutability": "nonpayable",
      "type": "function"
    },
    {
      "inputs": [
        {
          "internalType": "address",
          "name": "_referrer",
          "type": "address"
        },
        {
          "internalType": "uint256",
          "name": "_node",
          "type": "uint256"
        }
      ],
      "name": "stake",
      "outputs": [],
      "stateMutability": "nonpayable",
      "type": "function"
    },
    {
      "inputs": [],
      "name": "claim",
      "outputs": [],
      "stateMutability": "nonpayable",
      "type": "function"
    },
    {
      "inputs": [
        {
          "internalType": "uint256",
          "name": "_node",
          "type": "uint256"
        }
      ],
      "name": "withdraw",
      "outputs": [],
      "stateMutability": "nonpayable",
      "type": "function"
    },
    {
      "inputs": [
        {
          "internalType": "address",
          "name": "_user",
          "type": "address"
        },
        {
          "internalType": "uint256",
          "name": "_time",
          "type": "uint256"
        }
      ],
      "name": "calculateReward",
      "outputs": [
        {
          "internalType": "uint256",
          "name": "_reward",
          "type": "uint256"
        }
      ],
      "stateMutability": "view",
      "type": "function",
      "constant": true
    },
    {
      "inputs": [],
      "name": "amountToDistribute",
      "outputs": [
        {
          "internalType": "uint256",
          "name": "",
          "type": "uint256"
        }
      ],
      "stateMutability": "view",
      "type": "function",
      "constant": true
    },
    {
      "inputs": [
        {
          "internalType": "uint256",
          "name": "_index",
          "type": "uint256"
        }
      ],
      "name": "getWeekData",
      "outputs": [
        {
          "internalType": "address[10]",
          "name": "_users",
          "type": "address[10]"
        },
        {
          "internalType": "uint256[10]",
          "name": "_amounts",
          "type": "uint256[10]"
        }
      ],
      "stateMutability": "view",
      "type": "function",
      "constant": true
    },
    {
      "inputs": [
        {
          "internalType": "address",
          "name": "_token",
          "type": "address"
        },
        {
          "internalType": "uint256",
          "name": "_amount",
          "type": "uint256"
        }
      ],
      "name": "withdrawStuckToken",
      "outputs": [],
      "stateMutability": "nonpayable",
      "type": "function"
    },
    {
      "inputs": [
        {
          "internalType": "uint256",
          "name": "_step",
          "type": "uint256"
        },
        {
          "internalType": "uint256",
          "name": "_claimDuration",
          "type": "uint256"
        }
      ],
      "name": "setTime",
      "outputs": [],
      "stateMutability": "nonpayable",
      "type": "function"
    },
    {
      "inputs": [
        {
          "internalType": "address",
          "name": "_token",
          "type": "address"
        }
      ],
      "name": "changeToken",
      "outputs": [],
      "stateMutability": "nonpayable",
      "type": "function"
    },
    {
      "inputs": [
        {
          "internalType": "uint256",
          "name": "_minDeposit",
          "type": "uint256"
        },
        {
          "internalType": "uint256",
          "name": "_maxDeposit",
          "type": "uint256"
        }
      ],
      "name": "setDepositLimits",
      "outputs": [],
      "stateMutability": "nonpayable",
      "type": "function"
    },
    {
      "inputs": [
        {
          "internalType": "address",
          "name": "_user",
          "type": "address"
        }
      ],
      "name": "migrateData",
      "outputs": [],
      "stateMutability": "nonpayable",
      "type": "function"
    },
    {
      "inputs": [
        {
          "internalType": "address",
          "name": "_user",
          "type": "address"
        },
        {
          "internalType": "uint256",
          "name": "_nodes",
          "type": "uint256"
        },
        {
          "internalType": "uint256",
          "name": "_claimedReward",
          "type": "uint256"
        },
        {
          "internalType": "uint256",
          "name": "_checkpoint",
          "type": "uint256"
        },
        {
          "internalType": "uint256",
          "name": "_referralsReward",
          "type": "uint256"
        },
        {
          "internalType": "uint256",
          "name": "_prizePoolIncome",
          "type": "uint256"
        },
        {
          "internalType": "uint256",
          "name": "_claimedReferralReward",
          "type": "uint256"
        }
      ],
      "name": "setdata1",
      "outputs": [],
      "stateMutability": "nonpayable",
      "type": "function"
    },
    {
      "inputs": [
        {
          "internalType": "address",
          "name": "_user",
          "type": "address"
        },
        {
          "internalType": "uint256",
          "name": "_claimablePrizePoolIncome",
          "type": "uint256"
        },
        {
          "internalType": "uint256",
          "name": "_startTime",
          "type": "uint256"
        },
        {
          "internalType": "address",
          "name": "_referrer",
          "type": "address"
        },
        {
          "internalType": "bool",
          "name": "_isActive",
          "type": "bool"
        },
        {
          "internalType": "bool",
          "name": "_isStaked",
          "type": "bool"
        },
        {
          "internalType": "uint256",
          "name": "_referralCount",
          "type": "uint256"
        },
        {
          "internalType": "uint256[9]",
          "name": "arr0",
          "type": "uint256[9]"
        },
        {
          "internalType": "uint256[9]",
          "name": "arr1",
          "type": "uint256[9]"
        }
      ],
      "name": "setdata2",
      "outputs": [],
      "stateMutability": "nonpayable",
      "type": "function"
    },
    {
      "inputs": [
        {
          "internalType": "uint256",
          "name": "_cuurentStakedNodes",
          "type": "uint256"
        },
        {
          "internalType": "uint256",
          "name": "_currentWeek",
          "type": "uint256"
        },
        {
          "internalType": "uint256",
          "name": "_launchTime",
          "type": "uint256"
        },
        {
          "internalType": "bool",
          "name": "_launced",
          "type": "bool"
        },
        {
          "internalType": "uint256",
          "name": "_rewardDistributed",
          "type": "uint256"
        },
        {
          "internalType": "uint256",
          "name": "_totalWithdrawanNodes",
          "type": "uint256"
        },
        {
          "internalType": "uint256",
          "name": "_uniqueStakers",
          "type": "uint256"
        },
        {
          "internalType": "uint256",
          "name": "_weekTime",
          "type": "uint256"
        }
      ],
      "name": "setVariables",
      "outputs": [],
      "stateMutability": "nonpayable",
      "type": "function"
    },
    {
      "inputs": [
        {
          "internalType": "address",
          "name": "_user",
          "type": "address"
        }
      ],
      "name": "getUserPower",
      "outputs": [
        {
          "internalType": "uint256[9]",
          "name": "_teampower",
          "type": "uint256[9]"
        }
      ],
      "stateMutability": "view",
      "type": "function",
      "constant": true
    },
    {
      "inputs": [
        {
          "internalType": "address",
          "name": "_user",
          "type": "address"
        }
      ],
      "name": "getUserReferrersPower",
      "outputs": [
        {
          "internalType": "uint256[9]",
          "name": "_teampower",
          "type": "uint256[9]"
        }
      ],
      "stateMutability": "view",
      "type": "function",
      "constant": true
    },
    {
      "inputs": [
        {
          "internalType": "address",
          "name": "_user",
          "type": "address"
        }
      ],
      "name": "getCurrentYield",
      "outputs": [
        {
          "internalType": "uint256",
          "name": "_apy",
          "type": "uint256"
        }
      ],
      "stateMutability": "view",
      "type": "function",
      "constant": true
    },
    {
      "inputs": [
        {
          "internalType": "address",
          "name": "_miningPool",
          "type": "address"
        }
      ],
      "name": "changeMiningPool",
      "outputs": [],
      "stateMutability": "nonpayable",
      "type": "function"
    },
    {
      "inputs": [
        {
          "internalType": "uint256",
          "name": "_amount",
          "type": "uint256"
        }
      ],
      "name": "withdrawStuckBNBAmount",
      "outputs": [],
      "stateMutability": "nonpayable",
      "type": "function"
    },
    {
      "inputs": [
        {
          "internalType": "address",
          "name": "_user",
          "type": "address"
        }
      ],
      "name": "getUserInfo",
      "outputs": [
        {
          "internalType": "uint256",
          "name": "_nodes",
          "type": "uint256"
        },
        {
          "internalType": "uint256",
          "name": "_claimedReward",
          "type": "uint256"
        },
        {
          "internalType": "uint256",
          "name": "_checkpoint",
          "type": "uint256"
        },
        {
          "internalType": "uint256",
          "name": "_referralsReward",
          "type": "uint256"
        },
        {
          "internalType": "uint256",
          "name": "_prizePoolIncome",
          "type": "uint256"
        },
        {
          "internalType": "uint256",
          "name": "_claimedReferralReward",
          "type": "uint256"
        },
        {
          "internalType": "uint256",
          "name": "_claimablePrizePoolIncome",
          "type": "uint256"
        },
        {
          "internalType": "uint256",
          "name": "_startTime",
          "type": "uint256"
        },
        {
          "internalType": "address",
          "name": "_referrer",
          "type": "address"
        },
        {
          "internalType": "bool",
          "name": "_isActive",
          "type": "bool"
        },
        {
          "internalType": "bool",
          "name": "_isStaked",
          "type": "bool"
        },
        {
          "internalType": "uint256[2]",
          "name": "_arr",
          "type": "uint256[2]"
        }
      ],
      "stateMutability": "view",
      "type": "function",
      "constant": true
    }
  ],
  "bytecode": "0x608060405234801561001057600080fd5b50613191806100206000396000f3fe6080604052600436106103015760003560e01c80636854171d1161018f578063a82b4432116100e1578063d1edbc531161008a578063ed4460ef11610064578063ed4460ef14610815578063f2fde38b1461082a578063fe6f1b051461084a57600080fd5b8063d1edbc53146107bf578063df48e623146107df578063e9483ac0146107ff57600080fd5b8063b2bdfa7b116100bb578063b2bdfa7b14610769578063c3c6d70c14610789578063cacd73d5146107a957600080fd5b8063a82b443214610713578063ab1a4d9414610733578063adc9772e1461074957600080fd5b80638091f3bf116101435780638c12dd7e1161011d5780638c12dd7e146106bf5780638da5cb5b146106d5578063a0355eca146106f357600080fd5b80638091f3bf146106605780638129fc1c1461068a57806382424ce01461069f57600080fd5b806373397597116101745780637339759714610614578063790ca413146106345780637c356df81461064a57600080fd5b80636854171d146105df578063715018a6146105ff57600080fd5b806326a2d7ab1161025357806358b9e4d6116101fc5780636386c1c7116101d65780636386c1c7146105725780636615d437146105aa57806366829b16146105bf57600080fd5b806358b9e4d614610526578063603b42f11461053c5780636083e59a1461055c57600080fd5b80634e71d92d1161022d5780634e71d92d146104dc5780634ed6575f146104f15780634eddea061461050657600080fd5b806326a2d7ab146104785780632e1a7d4d146104a657806341b3d185146104c657600080fd5b8063139466b7116102b55780631852e8d91161028f5780631852e8d91461040a578063247ed3a21461042a57806325832f7b1461044057600080fd5b8063139466b7146103be57806314b24dc2146103de5780631502906d146103f457600080fd5b8063056ea251116102e6578063056ea2511461035a57806306575c891461037a5780630c506e961461039e57600080fd5b806301339c211461030d57806302931e591461032457600080fd5b3661030857005b600080fd5b34801561031957600080fd5b50610322610860565b005b34801561033057600080fd5b5061034461033f366004612aaf565b6108d8565b6040516103519190612acc565b60405180910390f35b34801561036657600080fd5b50610322610375366004612aaf565b610946565b34801561038657600080fd5b5061039060685481565b604051908152602001610351565b3480156103aa57600080fd5b506103226103b9366004612afe565b61097d565b3480156103ca57600080fd5b506103226103d9366004612b2a565b610a14565b3480156103ea57600080fd5b50610390606b5481565b34801561040057600080fd5b50610390606f5481565b34801561041657600080fd5b50610390610425366004612afe565b610a5d565b34801561043657600080fd5b5061039060705481565b34801561044c57600080fd5b50606d54610460906001600160a01b031681565b6040516001600160a01b039091168152602001610351565b34801561048457600080fd5b50610498610493366004612b7f565b610ba9565b604051610351929190612b98565b3480156104b257600080fd5b506103226104c1366004612b7f565b610c44565b3480156104d257600080fd5b5061039060725481565b3480156104e857600080fd5b50610322611086565b3480156104fd57600080fd5b50610322611466565b34801561051257600080fd5b50610322610521366004612bff565b611490565b34801561053257600080fd5b5061039060755481565b34801561054857600080fd5b50610322610557366004612c2f565b6114a3565b34801561056857600080fd5b5061039060735481565b34801561057e57600080fd5b5061059261058d366004612aaf565b6114dd565b6040516103519c9b9a99989796959493929190612c94565b3480156105b657600080fd5b506103906115d7565b3480156105cb57600080fd5b506103226105da366004612aaf565b611604565b3480156105eb57600080fd5b50606e54610460906001600160a01b031681565b34801561060b57600080fd5b5061032261163b565b34801561062057600080fd5b50607154610460906001600160a01b031681565b34801561064057600080fd5b5061039060665481565b34801561065657600080fd5b5061039060695481565b34801561066c57600080fd5b5060655461067a9060ff1681565b6040519015158152602001610351565b34801561069657600080fd5b5061032261164d565b3480156106ab57600080fd5b506103226106ba366004612aaf565b61194d565b3480156106cb57600080fd5b50610390606c5481565b3480156106e157600080fd5b506033546001600160a01b0316610460565b3480156106ff57600080fd5b5061032261070e366004612bff565b611979565b34801561071f57600080fd5b5061032261072e366004612db1565b61198c565b34801561073f57600080fd5b5061039060765481565b34801561075557600080fd5b50610322610764366004612afe565b611a55565b34801561077557600080fd5b50603354610460906001600160a01b031681565b34801561079557600080fd5b506103446107a4366004612aaf565b611d41565b3480156107b557600080fd5b5061039060675481565b3480156107cb57600080fd5b506103906107da366004612aaf565b611dae565b3480156107eb57600080fd5b506103226107fa366004612b7f565b611e15565b34801561080b57600080fd5b50610390606a5481565b34801561082157600080fd5b50610390611e4e565b34801561083657600080fd5b50610322610845366004612aaf565b611e78565b34801561085657600080fd5b5061039060745481565b610868611f05565b60655460ff16156108c05760405162461bcd60e51b815260206004820152601060248201527f416c7265616479206c61756e636865640000000000000000000000000000000060448201526064015b60405180910390fd5b6065805460ff19166001179055426066819055606755565b6108e06129eb565b60005b6009811015610940576001600160a01b0383166000908152608c60205260409020816009811061091557610915612e4e565b015482826009811061092957610929612e4e565b60200201528061093881612e7a565b9150506108e3565b50919050565b61094e611f05565b6071805473ffffffffffffffffffffffffffffffffffffffff19166001600160a01b0392909216919091179055565b610985611f05565b6040517fa9059cbb000000000000000000000000000000000000000000000000000000008152336004820152602481018290526001600160a01b0383169063a9059cbb906044016020604051808303816000875af11580156109eb573d6000803e3d6000fd5b505050506040513d601f19601f82011682018060405250810190610a0f9190612e95565b505050565b610a1c611f05565b6001600160a01b039096166000908152608a60205260409020600a810195909555600585019390935560028401919091556007830155600982015560080155565b6001600160a01b0382166000908152608a6020526040812081610a808442612eb2565b90506000607654826064610a949190612ec9565b610a9e9190612ee8565b90506000606c5490506000816075546064610ab99190612ec9565b610ac39190612ee8565b606d546071546040517f70a082310000000000000000000000000000000000000000000000000000000081526001600160a01b0391821660048201529293506000928592859216906370a0823190602401602060405180830381865afa158015610b31573d6000803e3d6000fd5b505050506040513d601f19601f82011682018060405250810190610b559190612f0a565b610b5f9190612ec9565b610b699190612ee8565b90506127108487600a0154610b7e9190612ec9565b610b888584612ee8565b610b929190612ec9565b610b9c9190612ee8565b9998505050505050505050565b610bb1612a0a565b610bb9612a0a565b6000838152608b602052604090819020815161014081019283905291600a9082845b81546001600160a01b03168152600190910190602001808311610bdb575050506000868152608b6020526040908190208151610140810192839052949650600a9081019350915082845b815481526020019060010190808311610c255750505050509050915091565b336000908152608a602052604090206001810154600b8201546001600160a01b039091169062010000900460ff16610cbe5760405162461bcd60e51b815260206004820152601160248201527f5573657220686173206e6f207374616b6500000000000000000000000000000060448201526064016108b7565b600b820154610100900460ff16610d175760405162461bcd60e51b815260206004820152601160248201527f416c72656164792077697468647261776e00000000000000000000000000000060448201526064016108b7565b606d546040805163313ce56760e01b815290516000926001600160a01b03169163313ce5679160048083019260209291908290030181865afa158015610d61573d6000803e3d6000fd5b505050506040513d601f19601f82011682018060405250810190610d859190612f23565b610d9090600a61302c565b610d9b856064612ec9565b610da59190612ec9565b60655490915060ff16610dfa5760405162461bcd60e51b815260206004820152600f60248201527f5761697420666f72206c61756e6368000000000000000000000000000000000060448201526064016108b7565b82600a0154841115610e745760405162461bcd60e51b815260206004820152602e60248201527f6e6f6465732053686f756c64206265206c657373207468616e2063757272656e60448201527f74207374616b6564206e6f64657300000000000000000000000000000000000060648201526084016108b7565b610e7c611466565b606d546040517fa9059cbb000000000000000000000000000000000000000000000000000000008152336004820152602481018390526001600160a01b039091169063a9059cbb906044016020604051808303816000875af1158015610ee6573d6000803e3d6000fd5b505050506040513d601f19601f82011682018060405250810190610f0a9190612e95565b508383600a016000828254610f1f9190612eb2565b9250508190555083606c6000828254610f389190612eb2565b9250508190555083606b6000828254610f51919061303b565b9091555050600a830154610f6d57600b8301805461ff00191690555b60005b6009811015611005576001600160a01b03831615610fee576001600160a01b0383166000908152608c6020526040902085908260098110610fb357610fb3612e4e565b016000828254610fc39190612eb2565b90915550506001600160a01b039283166000908152608a602052604090206001015490921691610ff3565b611005565b80610ffd81612e7a565b915050610f70565b506001600160a01b03821615611046576001600160a01b0382166000908152608a602052604081206003018054869290611040908490612eb2565b90915550505b60408051338152602081018390527f4f14ea4e43cc569e4fb4d8fa171366f2f6925bfade37c5cc93334e373a4c984791015b60405180910390a150505050565b336000908152608a60205260409020600b81015462010000900460ff166110ef5760405162461bcd60e51b815260206004820152601160248201527f5573657220686173206e6f207374616b6500000000000000000000000000000060448201526064016108b7565b600b810154610100900460ff166111485760405162461bcd60e51b815260206004820152601160248201527f416c72656164792077697468647261776e00000000000000000000000000000060448201526064016108b7565b806002015460765461115a919061303b565b4210156111a95760405162461bcd60e51b815260206004820152601960248201527f5761697420666f722061746c6561737420323420686f7572730000000000000060448201526064016108b7565b60655460ff166111fb5760405162461bcd60e51b815260206004820152600f60248201527f5761697420666f72206c61756e6368000000000000000000000000000000000060448201526064016108b7565b611203611466565b6000611213338360020154610a5d565b9050600081116112655760405162461bcd60e51b815260206004820152600d60248201527f43616e277420636c61696d20300000000000000000000000000000000000000060448201526064016108b7565b606d546071546040516323b872dd60e01b81526001600160a01b039182166004820152336024820152604481018490529116906323b872dd906064016020604051808303816000875af11580156112c0573d6000803e3d6000fd5b505050506040513d601f19601f820116820180604052508101906112e49190612e95565b50606d5460715460078401546040516323b872dd60e01b81526001600160a01b03928316600482015233602482015260448101919091529116906323b872dd906064016020604051808303816000875af1158015611346573d6000803e3d6000fd5b505050506040513d601f19601f8201168201806040525081019061136a9190612e95565b506006820154604051339180156108fc02916000818181858888f1935050505015801561139b573d6000803e3d6000fd5b5081600701548260080160008282546113b4919061303b565b909155506113c490503382611f5f565b808260050160008282546113d8919061303b565b909155505060068201546009830180546000906113f690849061303b565b9091555050426002830155606a805482919060009061141690849061303b565b9091555050600060078301819055600683015560408051338152602081018390527fcea16a2d83554574def1edf3ec1fb53f1373f7ebb1fa98fecdaa4268588793cc910160405180910390a15050565b61146e6115d7565b6068541461148e5761147e612040565b6114866115d7565b606855426067555b565b611498611f05565b607291909155607355565b6114ab611f05565b606c979097556068959095556066939093556065805460ff191692151592909217909155606a55606b55606955606755565b60008060008060008060008060008060006114f6612a29565b6000608a60008f6001600160a01b03166001600160a01b03168152602001908152602001600020905080600a01549c5080600501549b5080600201549a50806000015495508060010160009054906101000a90046001600160a01b0316945080600b0160019054906101000a900460ff1693508060090154985080600b0160029054906101000a900460ff16925080600301548260006002811061159c5761159c612e4e565b602002015260048101548260016020020181815250508060070154995080600801549750806006015496505091939597999b5091939597999b565b6000606f5460076115e89190612ec9565b6066546115f59042612eb2565b6115ff9190612ee8565b905090565b61160c611f05565b606d805473ffffffffffffffffffffffffffffffffffffffff19166001600160a01b0392909216919091179055565b611643611f05565b61148e60006121cc565b600054610100900460ff161580801561166d5750600054600160ff909116105b806116875750303b158015611687575060005460ff166001145b6116f95760405162461bcd60e51b815260206004820152602e60248201527f496e697469616c697a61626c653a20636f6e747261637420697320616c72656160448201527f647920696e697469616c697a656400000000000000000000000000000000000060648201526084016108b7565b6000805460ff19166001179055801561171c576000805461ff0019166101001790555b6033805473ffffffffffffffffffffffffffffffffffffffff1990811673ba02934d2dd50445fd08e975ede02ca6c609d4db17909155606d80548216731b3e2293e64f021a81fd83c72beac8169fbd52f9908117909155606e8054831673e49001943f404a453f53fbc2365a3179214c2d681790556065805460ff1916600117905560006066819055606781905560688190556069819055606a819055606b819055606c5562015180606f55610bb8607055607180549092167393d7dd3c5a48f51a769c8aae33e652a4b1e5ee58179091556040805163313ce56760e01b8152905163313ce567916004818101926020929091908290030181865afa158015611829573d6000803e3d6000fd5b505050506040513d601f19601f8201168201806040525081019061184d9190612f23565b61185890600a61302c565b611863906064612ec9565b607255606d546040805163313ce56760e01b815290516001600160a01b039092169163313ce567916004808201926020929091908290030181865afa1580156118b0573d6000803e3d6000fd5b505050506040513d601f19601f820116820180604052508101906118d49190612f23565b6118df90600a61302c565b6118ed906359682f00612ec9565b6073556127106074556203345060755562015180607655801561194a576000805461ff0019169055604051600181527f7f26b83ff96e1f2b6a682f133852f6798a09c465da95921460cefb38474024989060200160405180910390a15b50565b611955611f05565b61195e8161222b565b611967816122e0565b611970816123aa565b61194a81612475565b611981611f05565b606f91909155607655565b611994611f05565b6001600160a01b038981166000908152608a60209081526040808320600681018d90558b815560018101805473ffffffffffffffffffffffffffffffffffffffff1916958c1695909517909455600b8401805462ffff0019166101008b15150262ff0000191617620100008a1515021790556004909301869055608c905220611a1f90836009612a47565b506001600160a01b0389166000908152608c60205260409020611a49906009908101908390612a47565b50505050505050505050565b336000908152608a60209081526040808320606d54825163313ce56760e01b815292519194936001600160a01b039091169263313ce56792600480830193928290030181865afa158015611aad573d6000803e3d6000fd5b505050506040513d601f19601f82011682018060405250810190611ad19190612f23565b611adc90600a61302c565b611ae7846064612ec9565b611af19190612ec9565b60655490915060ff16611b465760405162461bcd60e51b815260206004820152600f60248201527f5761697420666f72206c61756e6368000000000000000000000000000000000060448201526064016108b7565b607254811015611b985760405162461bcd60e51b815260206004820152601b60248201527f416d6f756e74206c657373207468616e206d696e20616d6f756e74000000000060448201526064016108b7565b607354811115611bea5760405162461bcd60e51b815260206004820152601460248201527f4d6f7265207468616e206d617820616d6f756e7400000000000000000000000060448201526064016108b7565b611bf2611466565b600b82015460ff16611c2657600b8201805460ff1916600117905542825560698054906000611c2083612e7a565b91905055505b8282600a016000828254611c3a919061303b565b9091555050426002830155600b8201805461ff001916610100179055606c8054849190600090611c6b90849061303b565b90915550611c7c90503385856125d0565b600b8201805462ff0000191662010000179055606d546040516323b872dd60e01b8152336004820152306024820152604481018390526001600160a01b03909116906323b872dd906064016020604051808303816000875af1158015611ce6573d6000803e3d6000fd5b505050506040513d601f19601f82011682018060405250810190611d0a9190612e95565b5060408051338152602081018390527fa4e109bb7f03a3cbe671105ffecfc362319eaa88ecaf35997a4d3a2328d66d6c9101611078565b611d496129eb565b60005b6009811015610940576001600160a01b0383166000908152608c6020526040902060099081019082908110611d8357611d83612e4e565b0154828260098110611d9757611d97612e4e565b602002015280611da681612e7a565b915050611d4c565b6001600160a01b0381166000908152608a602052604081206076548290611dd59042612eb2565b90506000611de38583610a5d565b600a840154909150611df78261016d612ec9565b611e019190612ee8565b611e0c906064612ec9565b95945050505050565b611e1d611f05565b604051339082156108fc029083906000818181858888f19350505050158015611e4a573d6000803e3d6000fd5b5050565b600080479050600060745460705483611e679190612ec9565b611e719190612ee8565b9392505050565b611e80611f05565b6001600160a01b038116611efc5760405162461bcd60e51b815260206004820152602660248201527f4f776e61626c653a206e6577206f776e657220697320746865207a65726f206160448201527f646472657373000000000000000000000000000000000000000000000000000060648201526084016108b7565b61194a816121cc565b6033546001600160a01b0316331461148e5760405162461bcd60e51b815260206004820181905260248201527f4f776e61626c653a2063616c6c6572206973206e6f7420746865206f776e657260448201526064016108b7565b8160015b6009811161203a576001600160a01b039182166000908152608a60205260409020600101549091169081611f965761203a565b6001600160a01b0382166000908152608a60205260409020600401548111612028576074546000906081611fcb600185612eb2565b60098110611fdb57611fdb612e4e565b0154611fe79086612ec9565b611ff19190612ee8565b6001600160a01b0384166000908152608a602052604081206007018054929350839290919061202190849061303b565b9091555050505b8061203281612e7a565b915050611f63565b50505050565b600061204a611e4e565b905060005b606854600052608b602052600a811015611e4a576068546000908152608b6020526040812082600a811061208557612085612e4e565b01546001600160a01b0316141561209a575050565b6000607454607783600a81106120b2576120b2612e4e565b01546120be9085612ec9565b6120c89190612ee8565b905080608b60006068548152602001908152602001600020600a0183600a81106120f4576120f4612e4e565b01556068546000908152608b602052604081208291608a9185600a811061211d5761211d612e4e565b01546001600160a01b0316815260208101919091526040016000908120600601805490919061214d90849061303b565b90915550506068546000908152608b602052604090207fc1d32ad5cca423e7dda2123dbf8c482f8e77d00b631c06e903a47f2cec1334df9083600a811061219657612196612e4e565b0154604080516001600160a01b039092168252602082018490520160405180910390a150806121c481612e7a565b91505061204f565b603380546001600160a01b0383811673ffffffffffffffffffffffffffffffffffffffff19831681179093556040519116919082907f8be0079c531659141344cd1fd0a4f28419497f9722a3daafe3b4186f6b6457e090600090a35050565b606e54604051636386c1c760e01b81526001600160a01b03838116600483015290911690636386c1c79060240161018060405180830381865afa158015612276573d6000803e3d6000fd5b505050506040513d601f19601f8201168201806040525081019061229a9190613053565b5050506001600160a01b039099166000908152608a602052604090206009810194909455505050600781019190915560028101919091556005810191909155600a015550565b606e54604051636386c1c760e01b81526001600160a01b03838116600483015290911690636386c1c79060240161018060405180830381865afa15801561232b573d6000803e3d6000fd5b505050506040513d601f19601f8201168201806040525081019061234f9190613053565b5050506001600160a01b03998a166000908152608a6020526040902060018101805473ffffffffffffffffffffffffffffffffffffffff191692909b1691909117909955885560068801556008909601959095555050505050565b606e54604051636386c1c760e01b81526001600160a01b03838116600483015290911690636386c1c79060240161018060405180830381865afa1580156123f5573d6000803e3d6000fd5b505050506040513d601f19601f820116820180604052508101906124199190613053565b6001600160a01b039c909c166000908152608a60205260409020600481019c909c55600b909b01805462ffff001916620100009c15159c909c0261ff0019169b909b176101009115159190910217909955505050505050505050565b606e546040517f02931e590000000000000000000000000000000000000000000000000000000081526001600160a01b038381166004830152909116906302931e599060240161012060405180830381865afa1580156124d9573d6000803e3d6000fd5b505050506040513d601f19601f820116820180604052508101906124fd91906130fa565b6001600160a01b0382166000908152608c60205260409020612520916009612a47565b50606e546040517fc3c6d70c0000000000000000000000000000000000000000000000000000000081526001600160a01b0383811660048301529091169063c3c6d70c9060240161012060405180830381865afa158015612585573d6000803e3d6000fd5b505050506040513d601f19601f820116820180604052508101906125a991906130fa565b6001600160a01b0382166000908152608c60205260409020611e4a91600991820191612a47565b6001600160a01b038084166000908152608a6020526040902060018101549091161561262b5760018101546001600160a01b03166000908152608a60205260408120600301805484929061262590849061303b565b90915550505b60018101546001600160a01b031661276257836001600160a01b0316836001600160a01b03161415801561268057506001600160a01b0383166000908152608a60205260409020600b015462010000900460ff165b80156126a957506001600160a01b038381166000908152608a6020526040902060010154163314155b156127425760018101805473ffffffffffffffffffffffffffffffffffffffff19166001600160a01b0385169081179091551561273d576001600160a01b0383166000908152608a60205260408120600301805484929061270b90849061303b565b90915550506001600160a01b0383166000908152608a6020526040812060040180549161273783612e7a565b91905055505b612762565b60018101805473ffffffffffffffffffffffffffffffffffffffff191690555b60018101546001600160a01b031660005b600981101561284a576001600160a01b03821615612833576001600160a01b0382166000908152608c60205260409020600990810190829081106127b9576127b9612e4e565b0180549060006127c883612e7a565b90915550506001600160a01b0382166000908152608c60205260409020849082600981106127f8576127f8612e4e565b016000828254612808919061303b565b90915550506001600160a01b039182166000908152608a602052604090206001015490911690612838565b61284a565b8061284281612e7a565b915050612773565b5060005b606854600052608b602052600a8110156129e3576068546000908152608b602052604090206001600160a01b0386169082600a811061288f5761288f612e4e565b01546001600160a01b031614156128a5576129e3565b6068546000908152608b60205260408120608a919083600a81106128cb576128cb612e4e565b01546001600160a01b03908116825260208083019390935260409182016000908120600390810154928a168252608a909452919091209091015411156129d157846000825b606854600052608b602052600a8110156129c9576068546000908152608b6020526040902081600a811061294657612946612e4e565b01546068546000908152608b602052604090206001600160a01b039091169250839082600a811061297957612979612e4e565b01805473ffffffffffffffffffffffffffffffffffffffff19166001600160a01b03928316179055919250829188811690831614156129b7576129c9565b806129c181612e7a565b915050612910565b5050506129e3565b806129db81612e7a565b91505061284e565b505050505050565b6040518061012001604052806009906020820280368337509192915050565b604051806101400160405280600a906020820280368337509192915050565b60405180604001604052806002906020820280368337509192915050565b8260098101928215612a75579160200282015b82811115612a75578251825591602001919060010190612a5a565b50612a81929150612a85565b5090565b5b80821115612a815760008155600101612a86565b6001600160a01b038116811461194a57600080fd5b600060208284031215612ac157600080fd5b8135611e7181612a9a565b6101208101818360005b6009811015612af5578151835260209283019290910190600101612ad6565b50505092915050565b60008060408385031215612b1157600080fd5b8235612b1c81612a9a565b946020939093013593505050565b600080600080600080600060e0888a031215612b4557600080fd5b8735612b5081612a9a565b9960208901359950604089013598606081013598506080810135975060a0810135965060c00135945092505050565b600060208284031215612b9157600080fd5b5035919050565b6102808101818460005b600a811015612bca5781516001600160a01b0316835260209283019290910190600101612ba2565b50505061014082018360005b600a811015612bf5578151835260209283019290910190600101612bd6565b5050509392505050565b60008060408385031215612c1257600080fd5b50508035926020909101359150565b801515811461194a57600080fd5b600080600080600080600080610100898b031215612c4c57600080fd5b8835975060208901359650604089013595506060890135612c6c81612c21565b979a969950949760808101359660a0820135965060c0820135955060e0909101359350915050565b60006101a0820190508d825260208d818401528c60408401528b60608401528a60808401528960a08401528860c08401528760e08401526001600160a01b03871661010084015285151561012084015284151561014084015261016083018460005b6002811015612d1357815183529183019190830190600101612cf6565b505050509d9c50505050505050505050505050565b604051610120810167ffffffffffffffff81118282101715612d5a57634e487b7160e01b600052604160045260246000fd5b60405290565b600082601f830112612d7157600080fd5b612d79612d28565b80610120840185811115612d8c57600080fd5b845b81811015612da6578035845260209384019301612d8e565b509095945050505050565b60008060008060008060008060006103208a8c031215612dd057600080fd5b8935612ddb81612a9a565b985060208a0135975060408a0135965060608a0135612df981612a9a565b955060808a0135612e0981612c21565b945060a08a0135612e1981612c21565b935060c08a01359250612e2f8b60e08c01612d60565b9150612e3f8b6102008c01612d60565b90509295985092959850929598565b634e487b7160e01b600052603260045260246000fd5b634e487b7160e01b600052601160045260246000fd5b6000600019821415612e8e57612e8e612e64565b5060010190565b600060208284031215612ea757600080fd5b8151611e7181612c21565b600082821015612ec457612ec4612e64565b500390565b6000816000190483118215151615612ee357612ee3612e64565b500290565b600082612f0557634e487b7160e01b600052601260045260246000fd5b500490565b600060208284031215612f1c57600080fd5b5051919050565b600060208284031215612f3557600080fd5b815160ff81168114611e7157600080fd5b600181815b80851115612f81578160001904821115612f6757612f67612e64565b80851615612f7457918102915b93841c9390800290612f4b565b509250929050565b600082612f9857506001613026565b81612fa557506000613026565b8160018114612fbb5760028114612fc557612fe1565b6001915050613026565b60ff841115612fd657612fd6612e64565b50506001821b613026565b5060208310610133831016604e8410600b8410161715613004575081810a613026565b61300e8383612f46565b806000190482111561302257613022612e64565b0290505b92915050565b6000611e7160ff841683612f89565b6000821982111561304e5761304e612e64565b500190565b6000806000806000806000806000806000806101808d8f03121561307657600080fd5b8c519b5060208d01519a5060408d0151995060608d0151985060808d0151975060a08d0151965060c08d0151955060e08d015194506101008d01516130ba81612a9a565b6101208e01519094506130cc81612c21565b6101408e01519093506130de81612c21565b809250506101608d015190509295989b509295989b509295989b565b600061012080838503121561310e57600080fd5b83601f84011261311d57600080fd5b613125612d28565b90830190808583111561313757600080fd5b845b83811015613151578051835260209283019201613139565b509594505050505056fea26469706673582212205873d65cbe2cde579f5becdc2e45411e619fd7220902451627c39f6d12ddc9b264736f6c634300080a0033",
  "immutableReferences": {},
  "source": "// SPDX-License-Identifier: MIT\r\npragma solidity 0.8.10;\r\n\r\nimport \"@openzeppelin/contracts-upgradeable/token/ERC20/extensions/IERC20MetadataUpgradeable.sol\";\r\nimport \"@openzeppelin/contracts-upgradeable/access/OwnableUpgradeable.sol\";\r\nimport \"@openzeppelin/contracts-upgradeable/utils/AddressUpgradeable.sol\";\r\nimport \"@openzeppelin/contracts-upgradeable/proxy/utils/Initializable.sol\";\r\n\r\ninterface miningDappV1 {\r\n    function getUserInfo(address user)\r\n        external\r\n        view\r\n        returns (\r\n            uint256 _nodes,\r\n            uint256 _claimedReward,\r\n            uint256 _checkpoint,\r\n            uint256 _referralsReward,\r\n            uint256 _prizePoolIncome,\r\n            uint256 _claimedReferralReward,\r\n            uint256 _claimablePrizePoolIncome,\r\n            uint256 _startTime,\r\n            address _referrer,\r\n            bool _isActive,\r\n            bool _isStaked,\r\n            uint256 _referrals\r\n        );\r\n\r\n    function getUserPower(address _user)\r\n        external\r\n        view\r\n        returns (uint256[9] memory _teampower);\r\n\r\n    function getUserReferrersPower(address _user)\r\n        external\r\n        view\r\n        returns (uint256[9] memory _teampower);\r\n}\r\n\r\ncontract miningDapp is Initializable, OwnableUpgradeable {\r\n    bool public launched;\r\n    uint256 public launchTime;\r\n    uint256 public weekTime;\r\n    uint256 public currentWeek;\r\n    uint256 public uniqueStakers;\r\n    uint256 public rewardDistributed;\r\n    uint256 public totalWithdrawanNodes;\r\n    uint256 public currentStakedNodes;\r\n\r\n    IERC20MetadataUpgradeable public Fym;\r\n    miningDappV1 public v1;\r\n    uint256 public timeStep;\r\n    uint256 public poolPercent;\r\n    address public miningPool;\r\n    uint256 public minDeposit;\r\n    uint256 public maxDeposit;\r\n    uint256 public percentDivider;\r\n    uint256 public totalComputingPower;\r\n    uint256 public claimDuration;\r\n\r\n    uint256[10] bonus;\r\n    uint256[9] uplinebonus;\r\n\r\n    function initialize() public initializer {\r\n        OwnableUpgradeable(msg.sender);\r\n        _owner = 0xBA02934d2DD50445Fd08E975eDE02CA6C609d4db;\r\n        Fym = IERC20MetadataUpgradeable(\r\n            0x1b3e2293E64f021a81Fd83c72beAC8169FBd52F9\r\n        );\r\n        v1 = miningDappV1(0xE49001943F404A453F53FBC2365A3179214C2d68);\r\n        // _owner = 0xBA02934d2DD50445Fd08E975eDE02CA6C609d4db;\r\n        launched = true;\r\n        launchTime = 0;\r\n        weekTime = 0;\r\n        currentWeek = 0;\r\n        uniqueStakers = 0;\r\n        rewardDistributed = 0;\r\n        totalWithdrawanNodes = 0;\r\n        currentStakedNodes = 0;\r\n        timeStep = 1 days;\r\n        poolPercent = 30_00;\r\n        miningPool = 0x93d7DD3c5a48f51a769C8Aae33E652a4b1E5Ee58;\r\n        minDeposit = 100 * 10**Fym.decimals();\r\n        maxDeposit = 1500000000 * 10**Fym.decimals();\r\n        percentDivider = 100_00;\r\n        totalComputingPower = 210000;\r\n        claimDuration = 1 days;\r\n    }\r\n\r\n    struct User {\r\n        uint256 startTime;\r\n        address referrer;\r\n        uint256 checkpoint;\r\n        uint256 invitedNodes;\r\n        uint256 referralCount;\r\n        uint256 claimedReward;\r\n        uint256 claimablePrizePoolIncome;\r\n        uint256 referralsReward;\r\n        uint256 claimedReferralReward;\r\n        uint256 prizePoolIncome;\r\n        uint256 nodes;\r\n        bool isExists;\r\n        bool isActive;\r\n        bool isStaked;\r\n    }\r\n\r\n    struct UserInfo {\r\n        uint256[9] teamPower;\r\n        uint256[9] referrals;\r\n    }\r\n\r\n    struct Week {\r\n        address[10] Depositor;\r\n        uint256[10] usersAmount;\r\n    }\r\n\r\n    mapping(address => User) internal users;\r\n    mapping(uint256 => Week) internal weeklyData;\r\n    mapping(address => UserInfo) internal UserInfos;\r\n\r\n    event STAKE(address Staker, uint256 amount);\r\n    event CLAIM(address Staker, uint256 amount);\r\n    event WITHDRAW(address Staker, uint256 amount);\r\n    event Distribute(address Staker, uint256 amount);\r\n\r\n    function launch() external onlyOwner {\r\n        require(!launched, \"Already launched\");\r\n        launched = true;\r\n        launchTime = block.timestamp;\r\n        weekTime = block.timestamp;\r\n    }\r\n\r\n    function calculateWeek() public view returns (uint256) {\r\n        return (block.timestamp - launchTime) / (7 * timeStep);\r\n    }\r\n\r\n    function updateWeekly() public {\r\n        if (currentWeek != calculateWeek()) {\r\n            distributePrize();\r\n            currentWeek = calculateWeek();\r\n            weekTime = block.timestamp;\r\n        }\r\n    }\r\n\r\n    function stake(address _referrer, uint256 _node) public {\r\n        User storage user = users[msg.sender];\r\n        uint256 amount = _node * 100 * 10**Fym.decimals();\r\n        require(launched, \"Wait for launch\");\r\n        require(amount >= minDeposit, \"Amount less than min amount\");\r\n        require(amount <= maxDeposit, \"More than max amount\");\r\n        updateWeekly();\r\n        if (!user.isExists) {\r\n            user.isExists = true;\r\n            user.startTime = block.timestamp;\r\n            uniqueStakers++;\r\n        }\r\n        user.nodes += _node;\r\n        user.checkpoint = block.timestamp;\r\n        user.isActive = true;\r\n        currentStakedNodes += _node;\r\n        setReferrer(msg.sender, _referrer, _node);\r\n        user.isStaked = true;\r\n        Fym.transferFrom(msg.sender, address(this), amount);\r\n        emit STAKE(msg.sender, amount);\r\n    }\r\n\r\n    function setReferrer(\r\n        address _user,\r\n        address _referrer,\r\n        uint256 _amount\r\n    ) internal {\r\n        User storage user = users[_user];\r\n        if (user.referrer != address(0)) {\r\n            users[user.referrer].invitedNodes += _amount;\r\n        }\r\n        if (user.referrer == address(0)) {\r\n            if (\r\n                _referrer != _user &&\r\n                users[_referrer].isStaked &&\r\n                msg.sender != users[_referrer].referrer\r\n            ) {\r\n                user.referrer = _referrer;\r\n                if (_referrer != address(0)) {\r\n                    users[_referrer].invitedNodes += _amount;\r\n                    users[_referrer].referralCount++;\r\n                }\r\n            } else {\r\n                user.referrer = address(0);\r\n            }\r\n        }\r\n        address referrer = user.referrer;\r\n        for (uint256 i = 0; i < 9; i++) {\r\n            if (referrer != address(0)) {\r\n                UserInfos[referrer].referrals[i]++;\r\n                UserInfos[referrer].teamPower[i] += _amount;\r\n                referrer = users[referrer].referrer;\r\n            } else {\r\n                break;\r\n            }\r\n        }\r\n\r\n        for (uint256 i; i < weeklyData[currentWeek].Depositor.length; i++) {\r\n            if (weeklyData[currentWeek].Depositor[i] == _referrer) {\r\n                break;\r\n            }\r\n            if (\r\n                users[_referrer].invitedNodes >\r\n                users[weeklyData[currentWeek].Depositor[i]].invitedNodes\r\n            ) {\r\n                address x = _referrer;\r\n                address y;\r\n                for (\r\n                    uint256 j = i;\r\n                    j < weeklyData[currentWeek].Depositor.length;\r\n                    j++\r\n                ) {\r\n                    y = weeklyData[currentWeek].Depositor[j];\r\n                    weeklyData[currentWeek].Depositor[j] = x;\r\n                    x = y;\r\n                    if (y == _referrer) break;\r\n                }\r\n                break;\r\n            }\r\n        }\r\n    }\r\n\r\n    function claim() public {\r\n        User storage user = users[msg.sender];\r\n        require(user.isStaked, \"User has no stake\");\r\n        require(user.isActive, \"Already withdrawn\");\r\n        require(\r\n            block.timestamp >= claimDuration + user.checkpoint,\r\n            \"Wait for atleast 24 hours\"\r\n        );\r\n        require(launched, \"Wait for launch\");\r\n        updateWeekly();\r\n        uint256 rewardAmount;\r\n        rewardAmount = calculateReward(msg.sender, user.checkpoint);\r\n        require(rewardAmount > 0, \"Can't claim 0\");\r\n        Fym.transferFrom(miningPool, msg.sender, rewardAmount);\r\n        Fym.transferFrom(miningPool, msg.sender, user.referralsReward);\r\n        payable(msg.sender).transfer(user.claimablePrizePoolIncome);\r\n        user.claimedReferralReward += user.referralsReward;\r\n        setRefferalsReward(msg.sender, rewardAmount);\r\n        user.claimedReward += rewardAmount;\r\n        user.prizePoolIncome += user.claimablePrizePoolIncome;\r\n        user.checkpoint = block.timestamp;\r\n        rewardDistributed += rewardAmount;\r\n        user.referralsReward = 0;\r\n        user.claimablePrizePoolIncome = 0;\r\n        emit CLAIM(msg.sender, rewardAmount);\r\n    }\r\n\r\n    function setRefferalsReward(address _user, uint256 _amount) private {\r\n        address userReferral = _user;\r\n\r\n        for (uint256 i = 1; i <= uplinebonus.length; i++) {\r\n            {\r\n                userReferral = users[userReferral].referrer;\r\n                if (userReferral == address(0)) {\r\n                    break;\r\n                }\r\n                if (users[userReferral].referralCount >= i) {\r\n                    uint256 amount = (_amount * uplinebonus[i - 1]) /\r\n                        percentDivider;\r\n\r\n                    users[userReferral].referralsReward += amount;\r\n                }\r\n            }\r\n        }\r\n    }\r\n\r\n    function withdraw(uint256 _node) public {\r\n        User storage user = users[msg.sender];\r\n        address referrer = users[msg.sender].referrer;\r\n        require(user.isStaked, \"User has no stake\");\r\n        require(user.isActive, \"Already withdrawn\");\r\n        uint256 amount = _node * 100 * 10**Fym.decimals();\r\n        require(launched, \"Wait for launch\");\r\n        require(\r\n            _node <= user.nodes,\r\n            \"nodes Should be less than current staked nodes\"\r\n        );\r\n\r\n        updateWeekly();\r\n        Fym.transfer(msg.sender, amount);\r\n        user.nodes -= _node;\r\n        currentStakedNodes -= _node;\r\n        totalWithdrawanNodes += _node;\r\n        if (user.nodes == 0) {\r\n            user.isActive = false;\r\n        }\r\n\r\n        for (uint256 i = 0; i < 9; i++) {\r\n            if (referrer != address(0)) {\r\n                UserInfos[referrer].teamPower[i] -= _node;\r\n                referrer = users[referrer].referrer;\r\n            } else {\r\n                break;\r\n            }\r\n        }\r\n        if (referrer != address(0)) {\r\n            users[referrer].invitedNodes -= _node;\r\n        }\r\n\r\n        emit WITHDRAW(msg.sender, amount);\r\n    }\r\n\r\n    function calculateReward(address _user, uint256 _time)\r\n        public\r\n        view\r\n        returns (uint256 _reward)\r\n    {\r\n        User storage user = users[_user];\r\n        uint256 duration = block.timestamp - _time;\r\n        uint256 interval = (duration * 100) / claimDuration;\r\n        uint256 actualComputingPower = currentStakedNodes;\r\n        uint256 pledgeRate = ((totalComputingPower * 100) /\r\n            actualComputingPower);\r\n        uint256 miningOutput = ((Fym.balanceOf(miningPool) * pledgeRate) /\r\n            (actualComputingPower));\r\n        _reward =\r\n            ((miningOutput / actualComputingPower) * (user.nodes * interval)) /\r\n            10000;\r\n    }\r\n\r\n    function amountToDistribute() public view returns (uint256) {\r\n        uint256 prizePoolBalance = address(this).balance;\r\n        uint256 _prize = (prizePoolBalance * poolPercent) / percentDivider;\r\n        return _prize;\r\n    }\r\n\r\n    function distributePrize() private {\r\n        uint256 _amount = amountToDistribute();\r\n        for (uint256 i = 0; i < weeklyData[currentWeek].Depositor.length; i++) {\r\n            if (weeklyData[currentWeek].Depositor[i] == address(0)) {\r\n                break;\r\n            }\r\n            uint256 amount = (_amount * bonus[i]) / percentDivider;\r\n            weeklyData[currentWeek].usersAmount[i] = amount;\r\n            users[weeklyData[currentWeek].Depositor[i]]\r\n                .claimablePrizePoolIncome += amount;\r\n            emit Distribute(weeklyData[currentWeek].Depositor[i], amount);\r\n        }\r\n    }\r\n\r\n    function getWeekData(uint256 _index)\r\n        public\r\n        view\r\n        returns (address[10] memory _users, uint256[10] memory _amounts)\r\n    {\r\n        _users = weeklyData[_index].Depositor;\r\n        _amounts = weeklyData[_index].usersAmount;\r\n    }\r\n\r\n    function withdrawStuckToken(address _token, uint256 _amount)\r\n        public\r\n        onlyOwner\r\n    {\r\n        IERC20MetadataUpgradeable(_token).transfer(msg.sender, _amount);\r\n    }\r\n\r\n    function setTime(uint256 _step, uint256 _claimDuration) external onlyOwner {\r\n        timeStep = _step;\r\n        claimDuration = _claimDuration;\r\n    }\r\n\r\n    function changeToken(address _token) public onlyOwner {\r\n        Fym = IERC20MetadataUpgradeable(_token);\r\n    }\r\n\r\n    function setDepositLimits(uint256 _minDeposit, uint256 _maxDeposit)\r\n        public\r\n        onlyOwner\r\n    {\r\n        minDeposit = _minDeposit;\r\n        maxDeposit = _maxDeposit;\r\n    }\r\n\r\n    function migrateContract(address _user) internal {\r\n        (\r\n            users[_user].nodes,\r\n            users[_user].claimedReward,\r\n            users[_user].checkpoint,\r\n            users[_user].referralsReward,\r\n            users[_user].prizePoolIncome,\r\n            ,\r\n            ,\r\n            ,\r\n            ,\r\n            ,\r\n            ,\r\n\r\n        ) = v1.getUserInfo(_user);\r\n    }\r\n\r\n    function migrateContract1(address _user) internal {\r\n        (\r\n            ,\r\n            ,\r\n            ,\r\n            ,\r\n            ,\r\n            users[_user].claimedReferralReward,\r\n            users[_user].claimablePrizePoolIncome,\r\n            users[_user].startTime,\r\n            users[_user].referrer,\r\n            ,\r\n            ,\r\n\r\n        ) = v1.getUserInfo(_user);\r\n    }\r\n\r\n    function migrateContract2(address _user) internal {\r\n        (\r\n            ,\r\n            ,\r\n            ,\r\n            ,\r\n            ,\r\n            ,\r\n            ,\r\n            ,\r\n            ,\r\n            users[_user].isActive,\r\n            users[_user].isStaked,\r\n            users[_user].referralCount\r\n        ) = v1.getUserInfo(_user);\r\n    }\r\n\r\n    function migrateData(address _user) public onlyOwner {\r\n        migrateContract(_user);\r\n        migrateContract1(_user);\r\n        migrateContract2(_user);\r\n        getUserslevels(_user);\r\n    }\r\n\r\n    function setdata1(\r\n        address _user,\r\n        uint256 _nodes,\r\n        uint256 _claimedReward,\r\n        uint256 _checkpoint,\r\n        uint256 _referralsReward,\r\n        uint256 _prizePoolIncome,\r\n        uint256 _claimedReferralReward\r\n    ) public onlyOwner {\r\n        users[_user].nodes = _nodes;\r\n        users[_user].claimedReward = _claimedReward;\r\n        users[_user].checkpoint = _checkpoint;\r\n        users[_user].referralsReward = _referralsReward;\r\n        users[_user].prizePoolIncome = _prizePoolIncome;\r\n        users[_user].claimedReferralReward = _claimedReferralReward;\r\n    }\r\n\r\n    function setdata2(\r\n        address _user,\r\n        uint256 _claimablePrizePoolIncome,\r\n        uint256 _startTime,\r\n        address _referrer,\r\n        bool _isActive,\r\n        bool _isStaked,\r\n        uint256 _referralCount, uint256[9] memory arr0,uint256[9] memory arr1\r\n    ) public onlyOwner {\r\n        users[_user].claimablePrizePoolIncome = _claimablePrizePoolIncome;\r\n        users[_user].startTime = _startTime;\r\n        users[_user].referrer = _referrer;\r\n        users[_user].isActive = _isActive;\r\n        users[_user].isStaked = _isStaked;\r\n        users[_user].referralCount = _referralCount;\r\n        UserInfos[_user].teamPower = arr0;\r\n        UserInfos[_user].referrals = arr1;\r\n    }\r\n\r\n    function getUserslevels(address _user) internal {\r\n        UserInfos[_user].teamPower = v1.getUserPower(_user);\r\n        UserInfos[_user].referrals = v1.getUserReferrersPower(_user);\r\n    }\r\n\r\n    function setVariables(\r\n        uint256 _cuurentStakedNodes,\r\n        uint256 _currentWeek,\r\n        uint256 _launchTime,\r\n        bool _launced,\r\n        uint256 _rewardDistributed,\r\n        uint256 _totalWithdrawanNodes,\r\n        uint256 _uniqueStakers,\r\n        uint256 _weekTime\r\n    ) public onlyOwner {\r\n        currentStakedNodes = _cuurentStakedNodes;\r\n        currentWeek = _currentWeek;\r\n        launchTime = _launchTime;\r\n        launched = _launced;\r\n        rewardDistributed = _rewardDistributed;\r\n        totalWithdrawanNodes = _totalWithdrawanNodes;\r\n        uniqueStakers = _uniqueStakers;\r\n        weekTime = _weekTime;\r\n    }\r\n\r\n    function getUserPower(address _user)\r\n        public\r\n        view\r\n        returns (uint256[9] memory _teampower)\r\n    {\r\n        for (uint256 i = 0; i < 9; i++) {\r\n            _teampower[i] = UserInfos[_user].teamPower[i];\r\n        }\r\n        return _teampower;\r\n    }\r\n\r\n    function getUserReferrersPower(address _user)\r\n        public\r\n        view\r\n        returns (uint256[9] memory _teampower)\r\n    {\r\n        for (uint256 i = 0; i < 9; i++) {\r\n            _teampower[i] = UserInfos[_user].referrals[i];\r\n        }\r\n        return _teampower;\r\n    }\r\n\r\n    function getCurrentYield(address _user) public view returns (uint256 _apy) {\r\n        User storage user = users[_user];\r\n        uint256 time = block.timestamp - claimDuration;\r\n        uint256 perDay = calculateReward(_user, time);\r\n        _apy = ((perDay * 365) / user.nodes) * 100;\r\n    }\r\n\r\n    function changeMiningPool(address _miningPool) public onlyOwner {\r\n        miningPool = _miningPool;\r\n    }\r\n\r\n    function withdrawStuckBNBAmount(uint256 _amount) public onlyOwner {\r\n        payable(msg.sender).transfer(_amount);\r\n    }\r\n\r\n    function getUserInfo(address _user)\r\n        public\r\n        view\r\n        returns (\r\n            uint256 _nodes,\r\n            uint256 _claimedReward,\r\n            uint256 _checkpoint,\r\n            uint256 _referralsReward,\r\n            uint256 _prizePoolIncome,\r\n            uint256 _claimedReferralReward,\r\n            uint256 _claimablePrizePoolIncome,\r\n            uint256 _startTime,\r\n            address _referrer,\r\n            bool _isActive,\r\n            bool _isStaked,\r\n            uint256[2] memory _arr\r\n        )\r\n    {\r\n        User storage user = users[_user];\r\n        _nodes = user.nodes;\r\n        _claimedReward = user.claimedReward;\r\n        _checkpoint = user.checkpoint;\r\n        _startTime = user.startTime;\r\n        _referrer = user.referrer;\r\n        _isActive = user.isActive;\r\n        _prizePoolIncome = user.prizePoolIncome;\r\n        _isStaked = user.isStaked;\r\n        _arr[0] = user.invitedNodes;\r\n        _arr[1] = user.referralCount;\r\n        _referralsReward = user.referralsReward;\r\n        _claimedReferralReward = user.claimedReferralReward;\r\n        _claimablePrizePoolIncome = user.claimablePrizePoolIncome;\r\n    }\r\n\r\n    receive() external payable {}\r\n}\r\n",
  "sourcePath": "D:\\Wayne\\contracts\\mining.sol",
  "compiler": {
    "name": "solc",
    "version": "0.8.10+commit.fc410830.Emscripten.clang"
  },
  "schemaVersion": "3.4.14",
  "updatedAt": "2023-06-17T17:14:51.995Z",
  "networkType": "ethereum",
  "devdoc": {
    "kind": "dev",
    "methods": {
      "owner()": {
        "details": "Returns the address of the current owner."
      },
      "renounceOwnership()": {
        "details": "Leaves the contract without owner. It will not be possible to call `onlyOwner` functions. Can only be called by the current owner. NOTE: Renouncing ownership will leave the contract without an owner, thereby disabling any functionality that is only available to the owner."
      },
      "transferOwnership(address)": {
        "details": "Transfers ownership of the contract to a new account (`newOwner`). Can only be called by the current owner."
      }
    },
    "version": 1
  },
  "userdoc": {
    "kind": "user",
    "methods": {},
    "version": 1
  }
}